{
  "abi": [
    {
      "inputs": [
        {
          "internalType": "string",
          "name": "_text",
          "type": "string"
        }
      ],
      "stateMutability": "nonpayable",
      "type": "constructor"
    },
    {
      "inputs": [
        {
          "internalType": "uint256",
          "name": "blockId",
          "type": "uint256"
        }
      ],
      "name": "getPendingFacts",
      "outputs": [
        {
          "components": [
            {
              "internalType": "uint256",
              "name": "prevStateHash",
              "type": "uint256"
            },
            {
              "internalType": "uint256",
              "name": "pendingStateHash",
              "type": "uint256"
            },
            {
              "internalType": "uint256",
              "name": "daFact",
              "type": "uint256"
            },
            {
              "internalType": "uint256",
              "name": "onchainUpdatesHash",
              "type": "uint256"
            }
          ],
          "internalType": "struct NordSCMock.StateUpdateFacts",
          "name": "",
          "type": "tuple"
        }
      ],
      "stateMutability": "view",
      "type": "function"
    },
    {
      "inputs": [],
      "name": "getProposedBlockId",
      "outputs": [
        {
          "internalType": "uint256",
          "name": "",
          "type": "uint256"
        }
      ],
      "stateMutability": "view",
      "type": "function"
    },
    {
      "inputs": [],
      "name": "incrementProposedBlockId",
      "outputs": [],
      "stateMutability": "nonpayable",
      "type": "function"
    },
    {
      "inputs": [
        {
          "internalType": "uint256",
          "name": "fact",
          "type": "uint256"
        },
        {
          "internalType": "enum NordSCMock.FactState",
          "name": "state",
          "type": "uint8"
        }
      ],
      "name": "setDAFactState",
      "outputs": [],
      "stateMutability": "nonpayable",
      "type": "function"
    },
    {
      "inputs": [
        {
          "internalType": "uint256",
          "name": "blockId",
          "type": "uint256"
        },
        {
          "components": [
            {
              "internalType": "uint256",
              "name": "prevStateHash",
              "type": "uint256"
            },
            {
              "internalType": "uint256",
              "name": "pendingStateHash",
              "type": "uint256"
            },
            {
              "internalType": "uint256",
              "name": "daFact",
              "type": "uint256"
            },
            {
              "internalType": "uint256",
              "name": "onchainUpdatesHash",
              "type": "uint256"
            }
          ],
          "internalType": "struct NordSCMock.StateUpdateFacts",
          "name": "updateFacts",
          "type": "tuple"
        }
      ],
      "name": "setPendingFacts",
      "outputs": [],
      "stateMutability": "nonpayable",
      "type": "function"
    },
    {
      "inputs": [
        {
          "components": [
            {
              "internalType": "uint256",
              "name": "prevStateHash",
              "type": "uint256"
            },
            {
              "internalType": "uint256",
              "name": "pendingStateHash",
              "type": "uint256"
            },
            {
              "internalType": "uint256",
              "name": "daFact",
              "type": "uint256"
            },
            {
              "internalType": "uint256",
              "name": "onchainUpdatesHash",
              "type": "uint256"
            }
          ],
          "internalType": "struct NordSCMock.StateUpdateFacts",
          "name": "updateFacts",
          "type": "tuple"
        }
      ],
      "name": "submitStateUpdate",
      "outputs": [],
      "stateMutability": "nonpayable",
      "type": "function"
    },
    {
      "inputs": [
        {
          "components": [
            {
              "components": [
                {
                  "internalType": "uint256",
                  "name": "X",
                  "type": "uint256"
                },
                {
                  "internalType": "uint256",
                  "name": "Y",
                  "type": "uint256"
                }
              ],
              "internalType": "struct NordSCMock.G1Point",
              "name": "commitment",
              "type": "tuple"
            },
            {
              "internalType": "uint32",
              "name": "dataLength",
              "type": "uint32"
            },
            {
              "components": [
                {
                  "internalType": "uint8",
                  "name": "quorumNumber",
                  "type": "uint8"
                },
                {
                  "internalType": "uint8",
                  "name": "adversaryThresholdPercentage",
                  "type": "uint8"
                },
                {
                  "internalType": "uint8",
                  "name": "quorumThresholdPercentage",
                  "type": "uint8"
                },
                {
                  "internalType": "uint8",
                  "name": "quantizationParameter",
                  "type": "uint8"
                }
              ],
              "internalType": "struct NordSCMock.QuorumBlobParam[]",
              "name": "quorumBlobParams",
              "type": "tuple[]"
            }
          ],
          "internalType": "struct NordSCMock.BlobHeader[]",
          "name": "blobHeaders",
          "type": "tuple[]"
        },
        {
          "components": [
            {
              "internalType": "uint32",
              "name": "batchId",
              "type": "uint32"
            },
            {
              "internalType": "uint8",
              "name": "blobIndex",
              "type": "uint8"
            },
            {
              "components": [
                {
                  "components": [
                    {
                      "internalType": "bytes32",
                      "name": "blobHeadersRoot",
                      "type": "bytes32"
                    },
                    {
                      "internalType": "bytes",
                      "name": "quorumNumbers",
                      "type": "bytes"
                    },
                    {
                      "internalType": "bytes",
                      "name": "quorumThresholdPercentages",
                      "type": "bytes"
                    },
                    {
                      "internalType": "uint32",
                      "name": "referenceBlockNumber",
                      "type": "uint32"
                    }
                  ],
                  "internalType": "struct NordSCMock.BatchHeader",
                  "name": "batchHeader",
                  "type": "tuple"
                },
                {
                  "internalType": "bytes32",
                  "name": "signatoryRecordHash",
                  "type": "bytes32"
                },
                {
                  "internalType": "uint96",
                  "name": "fee",
                  "type": "uint96"
                },
                {
                  "internalType": "uint32",
                  "name": "confirmationBlockNumber",
                  "type": "uint32"
                }
              ],
              "internalType": "struct NordSCMock.BatchMetadata",
              "name": "batchMetadata",
              "type": "tuple"
            },
            {
              "internalType": "bytes",
              "name": "inclusionProof",
              "type": "bytes"
            },
            {
              "internalType": "bytes",
              "name": "quorumThresholdIndexes",
              "type": "bytes"
            }
          ],
          "internalType": "struct NordSCMock.BlobVerificationProof[]",
          "name": "blobVerificationProofs",
          "type": "tuple[]"
        },
        {
          "internalType": "bytes32",
          "name": "dataDigest",
          "type": "bytes32"
        },
        {
          "components": [
            {
              "internalType": "bytes",
              "name": "seal",
              "type": "bytes"
            },
            {
              "internalType": "bytes32",
              "name": "postStateDigest",
              "type": "bytes32"
            }
          ],
          "internalType": "struct NordSCMock.StateAuthentication",
          "name": "auth",
          "type": "tuple"
        }
      ],
      "name": "verifyBlobs",
      "outputs": [],
      "stateMutability": "nonpayable",
      "type": "function"
    }
  ],
  "bytecode": {
    "object": "0x60806040523480156200001157600080fd5b5060405162001493380380620014938339818101604052810190620000379190620001ea565b806003908162000048919062000486565b5060008081905550506200056d565b6000604051905090565b600080fd5b600080fd5b600080fd5b600080fd5b6000601f19601f8301169050919050565b7f4e487b7100000000000000000000000000000000000000000000000000000000600052604160045260246000fd5b620000c08262000075565b810181811067ffffffffffffffff82111715620000e257620000e162000086565b5b80604052505050565b6000620000f762000057565b9050620001058282620000b5565b919050565b600067ffffffffffffffff82111562000128576200012762000086565b5b620001338262000075565b9050602081019050919050565b60005b838110156200016057808201518184015260208101905062000143565b60008484015250505050565b6000620001836200017d846200010a565b620000eb565b905082815260208101848484011115620001a257620001a162000070565b5b620001af84828562000140565b509392505050565b600082601f830112620001cf57620001ce6200006b565b5b8151620001e18482602086016200016c565b91505092915050565b60006020828403121562000203576200020262000061565b5b600082015167ffffffffffffffff81111562000224576200022362000066565b5b6200023284828501620001b7565b91505092915050565b600081519050919050565b7f4e487b7100000000000000000000000000000000000000000000000000000000600052602260045260246000fd5b600060028204905060018216806200028e57607f821691505b602082108103620002a457620002a362000246565b5b50919050565b60008190508160005260206000209050919050565b60006020601f8301049050919050565b600082821b905092915050565b6000600883026200030e7fffffffffffffffffffffffffffffffffffffffffffffffffffffffffffffffff82620002cf565b6200031a8683620002cf565b95508019841693508086168417925050509392505050565b6000819050919050565b6000819050919050565b600062000367620003616200035b8462000332565b6200033c565b62000332565b9050919050565b6000819050919050565b620003838362000346565b6200039b62000392826200036e565b848454620002dc565b825550505050565b600090565b620003b2620003a3565b620003bf81848462000378565b505050565b5b81811015620003e757620003db600082620003a8565b600181019050620003c5565b5050565b601f82111562000436576200040081620002aa565b6200040b84620002bf565b810160208510156200041b578190505b620004336200042a85620002bf565b830182620003c4565b50505b505050565b600082821c905092915050565b60006200045b600019846008026200043b565b1980831691505092915050565b600062000476838362000448565b9150826002028217905092915050565b62000491826200023b565b67ffffffffffffffff811115620004ad57620004ac62000086565b5b620004b9825462000275565b620004c6828285620003eb565b600060209050601f831160018114620004fe5760008415620004e9578287015190505b620004f5858262000468565b86555062000565565b601f1984166200050e86620002aa565b60005b82811015620005385784890151825560018201915060208501945060208101905062000511565b8683101562000558578489015162000554601f89168262000448565b8355505b6001600288020188555050505b505050505050565b610f16806200057d6000396000f3fe608060405234801561001057600080fd5b506004361061007d5760003560e01c806331bfbdb41161005b57806331bfbdb4146100d6578063324d3998146100f457806349299dfc14610124578063ad473c011461012e5761007d565b80631b54d548146100825780631eb551e71461009e5780632e17dbba146100ba575b600080fd5b61009c600480360381019061009791906102e3565b61014a565b005b6100b860048036038101906100b39190610431565b610189565b005b6100d460048036038101906100cf9190610c7c565b6101cc565b005b6100de6101d2565b6040516100eb9190610d46565b60405180910390f35b61010e60048036038101906101099190610d61565b6101db565b60405161011b9190610df2565b60405180910390f35b61012c610230565b005b61014860048036038101906101439190610e0d565b610249565b005b806002600084815260200190815260200160002060006101000a81548160ff021916908360058111156101805761017f610e3a565b5b02179055505050565b8060016000848152602001908152602001600020600082015181600001556020820151816001015560408201518160020155606082015181600301559050505050565b50505050565b60008054905090565b6101e361024c565b600160008381526020019081526020016000206040518060800160405290816000820154815260200160018201548152602001600282015481526020016003820154815250509050919050565b60008081548092919061024290610e98565b9190505550565b50565b6040518060800160405280600081526020016000815260200160008152602001600081525090565b6000604051905090565b600080fd5b600080fd5b6000819050919050565b61029b81610288565b81146102a657600080fd5b50565b6000813590506102b881610292565b92915050565b600681106102cb57600080fd5b50565b6000813590506102dd816102be565b92915050565b600080604083850312156102fa576102f961027e565b5b6000610308858286016102a9565b9250506020610319858286016102ce565b9150509250929050565b600080fd5b6000601f19601f8301169050919050565b7f4e487b7100000000000000000000000000000000000000000000000000000000600052604160045260246000fd5b61037182610328565b810181811067ffffffffffffffff821117156103905761038f610339565b5b80604052505050565b60006103a3610274565b90506103af8282610368565b919050565b600080fd5b6000608082840312156103cf576103ce610323565b5b6103d96080610399565b905060006103e9848285016102a9565b60008301525060206103fd848285016102a9565b6020830152506040610411848285016102a9565b6040830152506060610425848285016102a9565b60608301525092915050565b60008060a083850312156104485761044761027e565b5b6000610456858286016102a9565b9250506020610467858286016103b9565b9150509250929050565b600080fd5b600067ffffffffffffffff82111561049157610490610339565b5b602082029050602081019050919050565b600080fd5b6000604082840312156104bd576104bc610323565b5b6104c76040610399565b905060006104d7848285016102a9565b60008301525060206104eb848285016102a9565b60208301525092915050565b600063ffffffff82169050919050565b610510816104f7565b811461051b57600080fd5b50565b60008135905061052d81610507565b92915050565b600067ffffffffffffffff82111561054e5761054d610339565b5b602082029050602081019050919050565b600060ff82169050919050565b6105758161055f565b811461058057600080fd5b50565b6000813590506105928161056c565b92915050565b6000608082840312156105ae576105ad610323565b5b6105b86080610399565b905060006105c884828501610583565b60008301525060206105dc84828501610583565b60208301525060406105f084828501610583565b604083015250606061060484828501610583565b60608301525092915050565b600061062361061e84610533565b610399565b90508083825260208201905060808402830185811115610646576106456104a2565b5b835b8181101561066f578061065b8882610598565b845260208401935050608081019050610648565b5050509392505050565b600082601f83011261068e5761068d610471565b5b813561069e848260208601610610565b91505092915050565b6000608082840312156106bd576106bc610323565b5b6106c76060610399565b905060006106d7848285016104a7565b60008301525060406106eb8482850161051e565b602083015250606082013567ffffffffffffffff81111561070f5761070e6103b4565b5b61071b84828501610679565b60408301525092915050565b600061073a61073584610476565b610399565b9050808382526020820190506020840283018581111561075d5761075c6104a2565b5b835b818110156107a457803567ffffffffffffffff81111561078257610781610471565b5b80860161078f89826106a7565b8552602085019450505060208101905061075f565b5050509392505050565b600082601f8301126107c3576107c2610471565b5b81356107d3848260208601610727565b91505092915050565b600067ffffffffffffffff8211156107f7576107f6610339565b5b602082029050602081019050919050565b6000819050919050565b61081b81610808565b811461082657600080fd5b50565b60008135905061083881610812565b92915050565b600080fd5b600067ffffffffffffffff82111561085e5761085d610339565b5b61086782610328565b9050602081019050919050565b82818337600083830152505050565b600061089661089184610843565b610399565b9050828152602081018484840111156108b2576108b161083e565b5b6108bd848285610874565b509392505050565b600082601f8301126108da576108d9610471565b5b81356108ea848260208601610883565b91505092915050565b60006080828403121561090957610908610323565b5b6109136080610399565b9050600061092384828501610829565b600083015250602082013567ffffffffffffffff811115610947576109466103b4565b5b610953848285016108c5565b602083015250604082013567ffffffffffffffff811115610977576109766103b4565b5b610983848285016108c5565b60408301525060606109978482850161051e565b60608301525092915050565b60006bffffffffffffffffffffffff82169050919050565b6109c4816109a3565b81146109cf57600080fd5b50565b6000813590506109e1816109bb565b92915050565b6000608082840312156109fd576109fc610323565b5b610a076080610399565b9050600082013567ffffffffffffffff811115610a2757610a266103b4565b5b610a33848285016108f3565b6000830152506020610a4784828501610829565b6020830152506040610a5b848285016109d2565b6040830152506060610a6f8482850161051e565b60608301525092915050565b600060a08284031215610a9157610a90610323565b5b610a9b60a0610399565b90506000610aab8482850161051e565b6000830152506020610abf84828501610583565b602083015250604082013567ffffffffffffffff811115610ae357610ae26103b4565b5b610aef848285016109e7565b604083015250606082013567ffffffffffffffff811115610b1357610b126103b4565b5b610b1f848285016108c5565b606083015250608082013567ffffffffffffffff811115610b4357610b426103b4565b5b610b4f848285016108c5565b60808301525092915050565b6000610b6e610b69846107dc565b610399565b90508083825260208201905060208402830185811115610b9157610b906104a2565b5b835b81811015610bd857803567ffffffffffffffff811115610bb657610bb5610471565b5b808601610bc38982610a7b565b85526020850194505050602081019050610b93565b5050509392505050565b600082601f830112610bf757610bf6610471565b5b8135610c07848260208601610b5b565b91505092915050565b600060408284031215610c2657610c25610323565b5b610c306040610399565b9050600082013567ffffffffffffffff811115610c5057610c4f6103b4565b5b610c5c848285016108c5565b6000830152506020610c7084828501610829565b60208301525092915050565b60008060008060808587031215610c9657610c9561027e565b5b600085013567ffffffffffffffff811115610cb457610cb3610283565b5b610cc0878288016107ae565b945050602085013567ffffffffffffffff811115610ce157610ce0610283565b5b610ced87828801610be2565b9350506040610cfe87828801610829565b925050606085013567ffffffffffffffff811115610d1f57610d1e610283565b5b610d2b87828801610c10565b91505092959194509250565b610d4081610288565b82525050565b6000602082019050610d5b6000830184610d37565b92915050565b600060208284031215610d7757610d7661027e565b5b6000610d85848285016102a9565b91505092915050565b610d9781610288565b82525050565b608082016000820151610db36000850182610d8e565b506020820151610dc66020850182610d8e565b506040820151610dd96040850182610d8e565b506060820151610dec6060850182610d8e565b50505050565b6000608082019050610e076000830184610d9d565b92915050565b600060808284031215610e2357610e2261027e565b5b6000610e31848285016103b9565b91505092915050565b7f4e487b7100000000000000000000000000000000000000000000000000000000600052602160045260246000fd5b7f4e487b7100000000000000000000000000000000000000000000000000000000600052601160045260246000fd5b6000610ea382610288565b91507fffffffffffffffffffffffffffffffffffffffffffffffffffffffffffffffff8203610ed557610ed4610e69565b5b60018201905091905056fea2646970667358221220b36f825284eef27ea173fe33b35b85487044b347701cabdc496f179825a3fa1064736f6c63430008130033",
    "linkReferences": {}
  },
  "methodIdentifiers": {
    "getPendingFacts(uint256)": "324d3998",
    "getProposedBlockId()": "31bfbdb4",
    "incrementProposedBlockId()": "49299dfc",
    "setDAFactState(uint256,uint8)": "1b54d548",
    "setPendingFacts(uint256,(uint256,uint256,uint256,uint256))": "1eb551e7",
    "submitStateUpdate((uint256,uint256,uint256,uint256))": "ad473c01",
    "verifyBlobs(((uint256,uint256),uint32,(uint8,uint8,uint8,uint8)[])[],(uint32,uint8,((bytes32,bytes,bytes,uint32),bytes32,uint96,uint32),bytes,bytes)[],bytes32,(bytes,bytes32))": "2e17dbba"
  },
  "id": 0
}